:100000000C942A000C94A20D0C94F20D0C94470051
:100010000C9462090C9412090C94C2080C942208E6
:100020000C9472080C94D2070C9482070C9432073B
:100030000C9447000C9447000C9447000C94470024
:100040000C9447000C9447000C9447000C94470014
:100050000C94470011241FBECFE5D8E0DEBFCDBF12
:1000600010E0A0E6B0E0E6EAF6E402C005900D92EA
:10007000AC36B107D9F710E0ACE6B0E001C01D9294
:10008000AA3AB107E1F70E9424210C9451230C9461
:100090000000EF92FF920F931F937B018C0120E0F1
:1000A00030E040E05FE40E94490388238CF0C801FF
:1000B000B70120E030E040E05FE40E94C1010E940F
:1000C000A9039B01AC01205030404040504806C07D
:1000D000C801B7010E94A9039B01AC01B901CA0183
:1000E0001F910F91FF90EF900895A0E0B0E0EBE733
:1000F000F0E00C941A23DC012B01FA019C91923060
:1001000008F439C1EB018881823008F433C194309E
:1001100069F4843009F02FC111969C91119789815F
:10012000981709F428C1A0E6B0E025C1843009F48D
:1001300021C18230A9F4923009F01DC19A01AD01AC
:1001400088E0EA010990AE01E90109929E0181501F
:10015000C1F7E201898111969C918923818308C1AD
:10016000923009F407C112962D903C901397EB0141
:100170008A819B811496AD90BD90CD90DC901797AD
:10018000EC80FD800E811F819101281B390BB90184
:1001900037FF04C066277727621B730B6032710537
:1001A0000CF061C0121613066CF537014801062EDB
:1001B00004C096948794779467940A94D2F721E0C8
:1001C00030E040E050E004C0220F331F441F551FB1
:1001D0006A95D2F721503040404050402E213F21B7
:1001E00040235123211531054105510521F021E01E
:1001F00030E040E050E079018A01E628F72808293C
:1002000019293CC0232BD1F1260E371E350146019A
:10021000062E04C096948794779467940A94D2F734
:1002200021E030E040E050E004C0220F331F441FC3
:10023000551F6A95D2F721503040404050402A2146
:100240003B214C215D21211531054105510521F04E
:1002500021E030E040E050E059016A01A628B728CB
:10026000C828D9280BC0821593052CF01C01AA249C
:10027000BB24650103C0EE24FF24870111969C91E5
:10028000D20111968C91981709F445C0992339F041
:10029000A80197012A193B094C095D0906C0A6016E
:1002A00095012E193F09400B510B57FD08C01182D3
:1002B0003382228224833583468357831DC081E0A5
:1002C00081833382228288279927DC01821B930B4A
:1002D000A40BB50B84839583A683B7830DC0220F2F
:1002E000331F441F551F24833583468357838281E0
:1002F000938101979383828324813581468157813D
:10030000DA01C9010197A109B1098F5F9F4FAF4F72
:10031000BF4328F30BC0918333822282EA0CFB1C7B
:100320000C1D1D1DE482F5820683178383E0808304
:10033000248135814681578157FF1AC0C901AA27F8
:1003400097FDA095BA2F81709070A070B0705695EF
:10035000479537952795822B932BA42BB52B848318
:100360009583A683B7838281938101969383828349
:10037000DF0101C0D201CD01CDB7DEB7E2E10C94BF
:100380003623A0E2B0E0E7ECF1E00C942623698389
:100390007A838B839C832D833E834F835887E9E048
:1003A000EE2EF12CEC0EFD1ECE010196B7010E943F
:1003B000D2048E010F5E1F4FCE010596B8010E9438
:1003C000D2048A8991E089278A8BC701B801AE01DE
:1003D000475E5F4F0E9475000E94FD03A096E6E015
:1003E0000C944223A0E2B0E0E8EFF1E00C94262365
:1003F00069837A838B839C832D833E834F835887C5
:10040000F9E0EF2EF12CEC0EFD1ECE010196B701A6
:100410000E94D2048E010F5E1F4FCE010596B801D7
:100420000E94D204C701B801AE01475E5F4F0E942F
:1004300075000E94FD03A096E6E00C944223A0E222
:10044000B0E0E5E2F2E00C941A2369837A838B83AF
:100450009C832D833E834F835887CE010196BE0136
:10046000675F7F4F0E94D204CE010596BE016F5E8A
:100470007F4F0E94D2049985923088F0898982301A
:10048000C8F0943019F4823051F404C0843029F457
:10049000923081F480E690E0C6C0923049F420E0CA
:1004A0009A858A89981321E02A87CE010996BBC0D4
:1004B000823049F420E09A858A89981321E02A8BBA
:1004C000CE014196B0C02D843E844F8458886D88FB
:1004D0007E888F88988CEE24FF248701AA24BB2471
:1004E000650140E050E060E070E0E0E0F0E0C10174
:1004F00081709070892BE9F0E60CF71C081D191D1E
:100500009A01AB012A0D3B1D4C1D5D1D80E090E062
:10051000A0E0B0E0E614F7040805190520F481E036
:1005200090E0A0E0B0E0BA01A901480F591F6A1F8E
:100530007B1FAA0CBB1CCC1CDD1C97FE08C081E0F5
:1005400090E0A0E0B0E0A82AB92ACA2ADB2A3196B6
:10055000E032F10549F0660C771C881C991C569412
:10056000479437942794C3CFFA85EA892B893C892D
:100570008B859C85280F391F2E5F3F4F17C0CA01FE
:1005800081709070892B61F016950795F794E79428
:1005900080E090E0A0E0B0E8E82AF92A0A2B1B2BC3
:1005A00076956795579547952F5F3F4F77FDE7CF36
:1005B0000CC0440F551F661F771F17FD4160EE0CDE
:1005C000FF1C001F111F21503040403090E05907A0
:1005D00090E0690790E4790760F32B8F3C8FDB0193
:1005E000CA018F779070A070B07080349105A1051A
:1005F000B10561F447FD0AC0E114F10401051105DC
:1006000029F0405C5F4F6F4F7F4F40781A8EFE1786
:1006100011F081E08A8F4D8F5E8F6F8F78A383E01A
:10062000898FCE0149960E94FD03A096E2E10C94C9
:100630003623A8E1B0E0EFE1F3E00C9426236983D0
:100640007A838B839C832D833E834F83588789E0F5
:10065000E82EF12CEC0EFD1ECE010196B7010E9492
:10066000D2048E010F5E1F4FCE010596B8010E9485
:10067000D2048985823040F08989823028F0C70110
:10068000B8010E944A0501C08FEF6896E6E00C941D
:100690004223A8E1B0E0EFE4F3E00C942623698361
:1006A0007A838B839C832D833E834F83588789E095
:1006B000E82EF12CEC0EFD1ECE010196B7010E9432
:1006C000D2048E010F5E1F4FCE010596B8010E9425
:1006D000D2048985823040F08989823028F0C701B0
:1006E000B8010E944A0501C08FEF6896E6E00C94BD
:1006F0004223A8E1B0E0EFE7F3E00C9426236983FE
:100700007A838B839C832D833E834F83588789E034
:10071000E82EF12CEC0EFD1ECE010196B7010E94D1
:10072000D2048E010F5E1F4FCE010596B8010E94C4
:10073000D2048985823040F08989823028F0C7014F
:10074000B8010E944A0501C081E06896E6E00C9479
:100750004223ACE0B0E0EFEAF3E00C942A23698393
:100760007A838B839C83CE010196BE016B5F7F4FA2
:100770000E94D2048D81823061F1823050F1843048
:1007800021F48E81882351F12EC02F81388537FDC9
:1007900020C06E812F3131051CF06623F9F023C093
:1007A0008EE190E0821B930B29853A854B855C8511
:1007B00004C056954795379527958A95D2F76623B5
:1007C000B1F050954095309521953F4F4F4F5F4F79
:1007D0000EC020E030E040E050E009C02FEF3FEFD6
:1007E0004FEF5FE704C020E030E040E050E8B9019F
:1007F000CA012C96E2E00C944623DF92EF92FF921E
:100800000F931F93FC01E480F58006811781D1804E
:100810008081823048F480E090E0A0E1B0E0E82AF6
:10082000F92A0A2B1B2BA5C0843009F49FC0823003
:1008300021F4EE24FF24870105C0E114F104010531
:10084000110519F4E0E0F0E096C0628173819FEF3A
:10085000623879070CF05BC022E83FEF261B370BAC
:100860002A3131052CF020E030E040E050E02AC091
:10087000B801A701022E04C0769567955795479554
:100880000A94D2F781E090E0A0E0B0E004C0880FC5
:10089000991FAA1FBB1F2A95D2F70197A109B10979
:1008A0008E219F21A023B1230097A105B10521F03E
:1008B00081E090E0A0E0B0E09A01AB01282B392B59
:1008C0004A2B5B2BDA01C9018F779070A070B07052
:1008D00080349105A105B10539F427FF09C0205CDA
:1008E0003F4F4F4F5F4F04C0215C3F4F4F4F5F4F13
:1008F000E0E0F0E02030A0E03A07A0E04A07A0E402
:100900005A0710F0E1E0F0E079018A0127C0603871
:10091000710564F5FB01E158FF4FD801C7018F77DE
:100920009070A070B07080349105A105B10539F4C4
:10093000E7FE0DC080E490E0A0E0B0E004C08FE3EB
:1009400090E0A0E0B0E0E80EF91E0A1F1B1F17FFA1
:1009500005C016950795F794E794319687E01695AC
:100960000795F794E7948A95D1F705C0EE24FF2404
:100970008701EFEFF0E06E2F679566276795902F60
:100980009F77D794DD24D7948E2F8695492F462BB9
:10099000582F5D29B701CA011F910F91FF90EF9069
:1009A000DF900895FC01DB01408151812281622F9B
:1009B0006F7770E0221F2227221F9381892F880FD3
:1009C000822B282F30E0991F9927991F11969C930D
:1009D000119721153105A9F54115510561057105DD
:1009E00011F482E037C082E89FEF13969C938E93B8
:1009F00012979A01AB0167E0220F331F441F551F66
:100A00006A95D1F783E08C930DC0220F331F441FEA
:100A1000551F12968D919C911397019713969C9355
:100A20008E931297203080E0380780E0480780E4FA
:100A3000580758F314962D933D934D935C93179755
:100A400008952F3F310579F4411551056105710570
:100A500019F484E08C93089564FF03C081E08C93C3
:100A600012C01C9210C02F57304013963C932E9307
:100A7000129783E08C9387E0440F551F661F771F02
:100A80008A95D1F7706414964D935D936D937C9322
:100A9000179708951F93DC01FB019C91923008F495
:100AA00047C08081823008F443C0943051F41196DD
:100AB0001C91843099F58181682F70E0611B710968
:100AC0003FC0843021F0923031F48230B9F181811D
:100AD000882389F12DC011961C9111978230F1F075
:100AE00081811817D9F412962D913C911397828128
:100AF00093818217930794F028173907BCF0149656
:100B00008D919D910D90BC91A02D248135814681C0
:100B10005781281739074A075B0718F4112341F05A
:100B20000AC082179307A407B50740F4112319F0F0
:100B300061E070E005C06FEF7FEF02C060E070E041
:100B4000CB011F910895DF93CF93CDB7DEB72B97DD
:100B50000FB6F894DEBF0FBECDBF1A8681E089873D
:100B60008DE790E09A83898383E08F8385E896E020
:100B70000E946A070E942C0DCE0101960E949A09DC
:100B80002B960FB6F894DEBF0FBECDBFCF91DF918D
:100B90000895DF93CF9300D00F92CDB7DEB79B833C
:100BA0008A8381E08983EA81FB818381882F90E0B9
:100BB000880F991F880F991F880F991FFC01E4590E
:100BC000FF4F80819181009709F04EC0EA81FB813F
:100BD0008381882F90E0EA81FB8124813581880F11
:100BE000991F0196880F991F880F991FFC01E459DE
:100BF000FF4F31832083EA81FB818381882F90E03E
:100C0000EA81FB8120813181880F991F880F991F0C
:100C1000880F991FFC01E459FF4F31832083EA813B
:100C2000FB818381882F90E0880F991F880F991F7F
:100C30000196880F991FFC01E459FF4F1082EA8149
:100C4000FB818381882F90E0EA81FB8126813781B7
:100C5000880F991F880F991F880F991FFC01EE5864
:100C6000FF4F3183208301C0198289810F900F903B
:100C70000F90CF91DF910895DF93CF930F92CDB76F
:100C8000DEB789838981882F90E0880F991F880FAC
:100C9000991F0196880F991FFC01E459FF4F81E0CD
:100CA00080830F90CF91DF910895DF93CF930F92C0
:100CB000CDB7DEB789838981882F90E0880F991F8F
:100CC000880F991F0196880F991FFC01E459FF4F67
:100CD00010820F90CF91DF910895DF93CF930F9201
:100CE000CDB7DEB789838981882F90E0880F991F5F
:100CF000880F991F880F991FFC01E459FF4F11823B
:100D000010820F90CF91DF910895DF93CF930F92D0
:100D1000CDB7DEB7198286C08981882F90E0880F11
:100D2000991F880F991F0196880F991FFC01E4599C
:100D3000FF4F8081882309F072C08981882F90E05D
:100D4000880F991F880F991F880F991FFC01EE5873
:100D5000FF4F80819181009709F043C08981882FDE
:100D600090E0880F991F880F991F880F991FFC0129
:100D7000E459FF4F80819181009709F450C0898127
:100D8000882F90E0880F991F880F991F880F991F4F
:100D9000FC01E459FF4F0190F081E02D0995898114
:100DA000482F50E08981882F90E0880F991F019685
:100DB000880F991F880F991FFC01E459FF4F80810C
:100DC00091819C0121503040CA01880F991F880FE2
:100DD000991F880F991FFC01EE58FF4F3183208324
:100DE0001EC08981282F30E0C901880F991F880F04
:100DF000991F880F991FFC01EE58FF4F8081918148
:100E0000AC0141505040C901880F991F880F991FAC
:100E1000880F991FFC01EE58FF4F51834083898151
:100E20008F5F89838981863008F476CF0F90CF91C8
:100E3000DF910895DF93CF9300D0CDB7DEB79A83CB
:100E4000898389819A81009741F0E091A400F09113
:100E5000A50089819A81918380830F900F90CF9113
:100E6000DF9108951F920F920FB60F9211242F93C6
:100E70003F934F935F936F937F938F939F93AF9322
:100E8000BF93EF93FF93DF93CF93CDB7DEB7E0919E
:100E9000A400F091A50080819181009741F0E0913C
:100EA000A400F091A5000190F081E02D0995CF916B
:100EB000DF91FF91EF91BF91AF919F918F917F91C2
:100EC0006F915F914F913F912F910F900FBE0F90B7
:100ED0001F901895DF93CF9300D0CDB7DEB79A83DC
:100EE000898389819A81009741F0E091A400F09173
:100EF000A50089819A81938382830F900F90CF916F
:100F0000DF9108951F920F920FB60F9211242F9325
:100F10003F934F935F936F937F938F939F93AF9381
:100F2000BF93EF93FF93DF93CF93CDB7DEB7E091FD
:100F3000A400F091A50082819381009741F0E09197
:100F4000A400F091A5000280F381E02D0995CF91D6
:100F5000DF91FF91EF91BF91AF919F918F917F9121
:100F60006F915F914F913F912F910F900FBE0F9016
:100F70001F901895DF93CF9300D0CDB7DEB79A833B
:100F8000898389819A81009741F0E091A400F091D2
:100F9000A50089819A81958384830F900F90CF91CA
:100FA000DF9108951F920F920FB60F9211242F9385
:100FB0003F934F935F936F937F938F939F93AF93E1
:100FC000BF93EF93FF93DF93CF93CDB7DEB7E0915D
:100FD000A400F091A50084819581009741F0E091F3
:100FE000A400F091A5000480F581E02D0995CF9132
:100FF000DF91FF91EF91BF91AF919F918F917F9181
:101000006F915F914F913F912F910F900FBE0F9075
:101010001F901895DF93CF9300D0CDB7DEB79A839A
:10102000898389819A81009741F0E091A400F09131
:10103000A50089819A81978386830F900F90CF9125
:10104000DF9108951F920F920FB60F9211242F93E4
:101050003F934F935F936F937F938F939F93AF9340
:10106000BF93EF93FF93DF93CF93CDB7DEB7E091BC
:10107000A400F091A50086819781009741F0E0914E
:10108000A400F091A5000680F781E02D0995CF918D
:10109000DF91FF91EF91BF91AF919F918F917F91E0
:1010A0006F915F914F913F912F910F900FBE0F90D5
:1010B0001F901895DF93CF9300D0CDB7DEB79A83FA
:1010C000898389819A81009741F0E091A400F09191
:1010D000A50089819A81918780870F900F90CF9189
:1010E000DF9108951F920F920FB60F9211242F9344
:1010F0003F934F935F936F937F938F939F93AF93A0
:10110000BF93EF93FF93DF93CF93CDB7DEB7E0911B
:10111000A400F091A50080859185009741F0E091B1
:10112000A400F091A5000084F185E02D0995CF91F0
:10113000DF91FF91EF91BF91AF919F918F917F913F
:101140006F915F914F913F912F910F900FBE0F9034
:101150001F901895DF93CF9300D0CDB7DEB79A8359
:10116000898389819A81009741F0E091A400F091F0
:10117000A50089819A81938782870F900F90CF91E4
:10118000DF9108951F920F920FB60F9211242F93A3
:101190003F934F935F936F937F938F939F93AF93FF
:1011A000BF93EF93FF93DF93CF93CDB7DEB7E0917B
:1011B000A400F091A50082859385009741F0E0910D
:1011C000A400F091A5000284F385E02D0995CF914C
:1011D000DF91FF91EF91BF91AF919F918F917F919F
:1011E0006F915F914F913F912F910F900FBE0F9094
:1011F0001F901895DF93CF9300D0CDB7DEB79A83B9
:10120000898389819A81009741F0E091A400F0914F
:10121000A50089819A81958784870F900F90CF913F
:10122000DF9108951F920F920FB60F9211242F9302
:101230003F934F935F936F937F938F939F93AF935E
:10124000BF93EF93FF93DF93CF93CDB7DEB7E091DA
:10125000A400F091A50084859585009741F0E09168
:10126000A400F091A5000484F585E02D0995CF91A7
:10127000DF91FF91EF91BF91AF919F918F917F91FE
:101280006F915F914F913F912F910F900FBE0F90F3
:101290001F901895DF93CF9300D0CDB7DEB79A8318
:1012A000898389819A81009741F0E091A400F091AF
:1012B000A50089819A81978786870F900F90CF919B
:1012C000DF9108951F920F920FB60F9211242F9362
:1012D0003F934F935F936F937F938F939F93AF93BE
:1012E000BF93EF93FF93DF93CF93CDB7DEB7E0913A
:1012F000A400F091A50086859785009741F0E091C4
:10130000A400F091A5000684F785E02D0995CF9102
:10131000DF91FF91EF91BF91AF919F918F917F915D
:101320006F915F914F913F912F910F900FBE0F9052
:101330001F901895DF93CF9300D000D0CDB7DEB7C4
:101340009A838983E981FA8181850E94000BE98172
:10135000FA818185282F30E03C832B838B819C810F
:101360008130910509F44EC02B813C81223031053A
:1013700009F4B1C08B819C81009709F0EEC0A2E511
:10138000B0E0E981FA81848195818C93A3E5B0E096
:10139000E3E5F0E0808180688C93E981FA818085C3
:1013A000882341F4A9E5B0E0E9E5F0E080818160BF
:1013B0008C931AC0E981FA8180858130A9F4ACE56B
:1013C000B0E0E981FA81808191818C93A3E5B0E05E
:1013D000E3E5F0E0808188608C93A9E5B0E0E9E581
:1013E000F0E0808182608C93A3E5B0E0E3E5F0E07B
:1013F0008081982F987FE981FA8186818770892B77
:101400008C93ABC0ACE4B0E0E981FA818481958132
:1014100011969C938E93AFE4B0E0EFE4F0E080810E
:1014200088608C93E981FA818085882341F4A9E55D
:10143000B0E0E9E5F0E0808184608C933EC0E98112
:10144000FA8180858130C9F5E981FA818285882316
:10145000C1F4AAE4B0E0E981FA818081918111961A
:101460009C938E93AEE4B0E0EEE4F0E0808188607F
:101470008C93A9E5B0E0E9E5F0E0808180618C9390
:101480001CC0E981FA8182858130B9F4AFE4B0E013
:10149000EFE4F0E0808184608C93A8E4B0E0E9811F
:1014A000FA818281938111969C938E93A9E5B0E095
:1014B000E9E5F0E0808188608C93AEE4B0E0EEE492
:1014C000F0E08081982F987FE981FA81868187708A
:1014D000892B8C9342C0A4E4B0E0E981FA81848135
:1014E00095818C93A5E4B0E0E5E4F0E0808180682C
:1014F0008C93E981FA818085882341F4A9E5B0E0E5
:10150000E9E5F0E0808180648C931AC0E981FA817A
:1015100080858130A9F4A3E4B0E0E981FA8180817B
:1015200091818C93A5E4B0E0E5E4F0E080818860EF
:101530008C93A9E5B0E0E9E5F0E0808180688C93C8
:10154000A5E4B0E0E5E4F0E08081982F987FE981A0
:10155000FA8187818770892B8C930F900F900F9061
:101560000F90CF91DF910895DF93CF9300D000D0FB
:10157000CDB7DEB79A838983E981FA818185282FE7
:1015800030E03C832B838B819C818130910589F0F5
:101590002B813C812230310529F18B819C81009780
:1015A00041F5ACE5B0E0E981FA81808191818C93CD
:1015B00020C0AAE4B0E0E981FA818081918111968E
:1015C0009C938E93E981FA818285813091F4E8E4DD
:1015D000F0E0A981BA8112968D919C911397918325
:1015E000808307C0A3E4B0E0E981FA818081918122
:1015F0008C930F900F900F900F90CF91DF910895E3
:10160000DF93CF9300D00F92CDB7DEB78983898166
:10161000282F30E03B832A838A819B81813091058A
:1016200019F12A813B81223031052CF48A819B817A
:10163000009761F056C02A813B812230310531F19B
:101640008A819B818330910579F14BC0E3E5F0E01D
:101650001082E2E5F0E01082A9E5B0E0E9E5F0E013
:1016600080818C7F8C933DC0EFE4F0E01082EEE44B
:10167000F0E01082ECE4F0E011821082A9E5B0E025
:10168000E9E5F0E08081837E8C932BC0E5E4F0E017
:101690001082E4E4F0E01082A9E5B0E0E9E5F0E0D2
:1016A00080818F738C931DC0A9E5B0E0E9E5F0E07F
:1016B000808180728C93E3E5F0E01082E2E5F0E057
:1016C0001082EFE4F0E01082EEE4F0E01082ECE44F
:1016D000F0E011821082E5E4F0E01082E4E4F0E052
:1016E00010820F900F900F90CF91DF910895DF93AC
:1016F000CF9300D00F92CDB7DEB789838981282F91
:1017000030E03B832A838A819B8181309105C9F037
:101710002A813B81223031052CF48A819B810097FC
:1017200061F022C02A813B812230310579F08A8123
:101730009B818330910571F017C0E2E5F0E01082E3
:1017400013C0ECE4F0E0118210820EC0E4E4F0E09B
:1017500010820AC0E2E5F0E01082ECE4F0E01182D1
:101760001082E4E4F0E010820F900F900F90CF9180
:10177000DF9108950F931F93DF93CF9300D000D094
:10178000CDB7DEB79A838983E981FA818185282FD5
:1017900030E03C832B838B819C818130910509F45F
:1017A00043C0EB81FC81E230F10509F40FC12B81CC
:1017B0003C812115310509F046C180E00E94770B7C
:1017C000ACE5B0E0E981FA81828193818C9381E07C
:1017D00063E041E00E941410A3E5B0E0E3E5F0E02F
:1017E00080818F778C93E981FA818085823029F41A
:1017F000E3E5F0E088E6808309C0E981FA8180852D
:10180000833021F4E3E5F0E080E68083A3E5B0E0F7
:10181000E3E5F0E08081982F987FE981FA81868165
:101820008770892B8C930FC181E00E94770BA6E40F
:10183000B0E0E981FA818081918111969C938E9329
:10184000AAE4B0E0E981FA818281938111969C93A8
:101850008E9383E065E041E00E941410AFE4B0E0B5
:10186000EFE4F0E08081877F8C93E981FA818085C5
:10187000823009F05BC0AEE4B0E0EEE4F0E08081DD
:1018800080618C93AEE4B0E0EEE4F0E080818860AB
:101890008C93AFE4B0E0EFE4F0E0808182608C9361
:1018A000AFE4B0E0EFE4F0E080818E7F8C93AFE4B2
:1018B000B0E0EFE4F0E0808180688C93AFE4B0E0CA
:1018C000EFE4F0E0808180628C93AFE4B0E0EFE47D
:1018D000F0E080818F7B8C93AFE4B0E0EFE4F0E048
:1018E00080818F7E8C93E981FA818385823009F033
:1018F0005FC0AFE4B0E0EFE4F0E080818B7F8C93D9
:1019000083E064E041E00E941410AFE4B0E0EFE453
:10191000F0E0808180628C93A8E4B0E0E981FA81F4
:101920008481958111969C938E9342C0E981FA81BE
:1019300080858330E9F5AEE4B0E0EEE4F0E080814C
:1019400080618C93AEE4B0E0EEE4F0E08081877FCC
:101950008C93AFE4B0E0EFE4F0E0808182608C93A0
:10196000AFE4B0E0EFE4F0E080818E7F8C93E9811A
:10197000FA8183858230E1F4AFE4B0E0EFE4F0E097
:1019800080818B7F8C9383E064E041E00E9414109F
:10199000AFE4B0E0EFE4F0E0808180628C93A8E4F3
:1019A000B0E0E981FA818481958111969C938E93B0
:1019B000AEE4B0E0EEE4F0E08081982F987FE9811A
:1019C000FA8186818770892B8C933DC082E00E94CA
:1019D000770B03E410E0E981FA818281938124E6A8
:1019E00030E0B9010E94E422CB01F801808383E05A
:1019F00067E041E00E941410A5E4B0E0E5E4F0E007
:101A000080818F778C93E981FA818085823029F4F7
:101A1000E5E4F0E088E6808309C0E981FA81808509
:101A2000833021F4E5E4F0E080E68083A5E4B0E0D3
:101A3000E5E4F0E08081982F987FE981FA81878141
:101A40008770892B8C930F900F900F900F90CF91F0
:101A5000DF911F910F910895DF93CF93CDB7DEB73C
:101A6000AFE5B0E0EFE5F0E0808180688C93CF9146
:101A7000DF910895DF93CF9300D0CDB7DEB79A837F
:101A8000898389819A81009741F0E091A800F091C3
:101A9000A90089819A81918380830F900F90CF91C3
:101AA000DF9108951F920F920FB60F9211242F937A
:101AB0003F934F935F936F937F938F939F93AF93D6
:101AC000BF93EF93FF93DF93CF93CDB7DEB7E09152
:101AD000A800F091A90080819181009741F0E091E8
:101AE000A800F091A9000190F081E02D0995CF9117
:101AF000DF91FF91EF91BF91AF919F918F917F9176
:101B00006F915F914F913F912F910F900FBE0F906A
:101B10001F901895DF93CF9300D0CDB7DEB79A838F
:101B2000898389819A81009741F0E091A800F09122
:101B3000A90089819A81938382830F900F90CF911E
:101B4000DF9108951F920F920FB60F9211242F93D9
:101B50003F934F935F936F937F938F939F93AF9335
:101B6000BF93EF93FF93DF93CF93CDB7DEB7E091B1
:101B7000A800F091A90082819381009741F0E09143
:101B8000A800F091A9000280F381E02D0995CF9182
:101B9000DF91FF91EF91BF91AF919F918F917F91D5
:101BA0006F915F914F913F912F910F900FBE0F90CA
:101BB0001F901895DF93CF9300D0CDB7DEB79A83EF
:101BC000898389819A81009741F0E091A800F09182
:101BD000A90089819A81958384830F900F90CF917A
:101BE000DF9108951F920F920FB60F9211242F9339
:101BF0003F934F935F936F937F938F939F93AF9395
:101C0000BF93EF93FF93DF93CF93CDB7DEB7E09110
:101C1000A800F091A90084819581009741F0E0919E
:101C2000A800F091A9000480F581E02D0995CF91DD
:101C3000DF91FF91EF91BF91AF919F918F917F9134
:101C40006F915F914F913F912F910F900FBE0F9029
:101C50001F901895DF93CF9300D000D0CDB7DEB79B
:101C60008A831982AFE5B0E0EFE5F0E0808180681B
:101C70008C938A81282F30E03C832B838B819C813D
:101C80008130910589F02B813C8122303105A1F012
:101C90008B819C810097C1F4ABE5B0E0EBE5F0E00F
:101CA000808180648C9312C0ABE5B0E0EBE5F0E09E
:101CB000808180688C930AC0ABE5B0E0EBE5F0E092
:101CC000808180628C9302C081E0898389810F903A
:101CD0000F900F900F90CF91DF910895DF93CF93E6
:101CE00000D000D0CDB7DEB78A8319828A81282F31
:101CF00030E03C832B838B819C8181309105E9F01E
:101D00002B813C81223031052CF48B819C81009702
:101D100061F02BC02B813C8122303105B1F08B81E9
:101D20009C8183309105C9F020C0ABE5B0E0EBE5C4
:101D3000F0E080818F7B8C931AC0ABE5B0E0EBE5DF
:101D4000F0E080818F778C9312C0ABE5B0E0EBE5DB
:101D5000F0E080818F7D8C930AC0AFE5B0E0EFE5C5
:101D6000F0E080818F778C9302C081E08983898144
:101D70000F900F900F900F90CF91DF910895DF9308
:101D8000CF9300D000D00F92CDB7DEB78A836B839C
:101D900019828A81282F30E03D832C838C819D819C
:101DA0008130910501F12C813D812230310589F18D
:101DB0008C819D81009709F042C0E5E5F0E08081CB
:101DC0008093A7008091A7008C7F8093A7009091BB
:101DD000A7008B81892B8093A700E5E5F0E0809137
:101DE000A70080832EC0E5E5F0E080818093A70006
:101DF0008091A700837F8093A7009091A7008B819B
:101E0000892B8093A700E5E5F0E08091A70080830F
:101E100018C0E4E5F0E080818093A7008091A700DE
:101E20008F7B8093A7009091A7008B81892B809353
:101E3000A700E4E5F0E08091A700808302C081E084
:101E4000898389810F900F900F900F900F90CF9101
:101E5000DF910895DF93CF9300D000D00F92CDB7DC
:101E6000DEB78A836B8319828A81282F30E03D8315
:101E70002C838C819D8181309105D1F02C813D8115
:101E8000223031052CF48C819D81009761F01FC0B8
:101E90002C813D812230310581F08C819D81833000
:101EA000910581F014C0E9E3F0E08B81818311C0DA
:101EB000E6E3F0E08B8181830CC0E3E3F0E08B810B
:101EC000818307C0E0E3F0E08B81818302C081E081
:101ED000898389810F900F900F900F900F90CF9171
:101EE000DF910895DF93CF9300D000D00F92CDB74C
:101EF000DEB78A836B8319828A81282F30E03D8385
:101F00002C838C819D8181309105D1F02C813D8184
:101F1000223031052CF48C819D81009761F01FC027
:101F20002C813D812230310581F08C819D8183306F
:101F3000910581F014C0E9E3F0E08B81828311C048
:101F4000E6E3F0E08B8182830CC0E3E3F0E08B8179
:101F5000828307C0E0E3F0E08B81828302C081E0EE
:101F6000898389810F900F900F900F900F90CF91E0
:101F7000DF910895DF93CF9300D000D000D0CDB78C
:101F8000DEB78A837C836B8319828B819C81009767
:101F900009F43EC08A81282F30E03E832D838D8155
:101FA0009E8181309105E1F02D813E812230310505
:101FB0002CF48D819E81009761F027C02D813E8198
:101FC00022303105A1F08D819E8183309105B1F0E1
:101FD0001CC0E9E3F0E08081EB81FC8180831AC0C2
:101FE000E6E3F0E08081EB81FC81808313C0E3E3D2
:101FF000F0E08081EB81FC8180830CC0E0E3F0E0C5
:102000008081EB81FC81808305C081E0898302C0EF
:1020100081E08983898126960FB6F894DEBF0FBED2
:10202000CDBFCF91DF910895DF93CF93CDB7DEB7CA
:102030002A970FB6F894DEBF0FBECDBF8A836B839D
:102040004C8319828B81883008F00DC18C81282F38
:1020500030E03A87298789859A85009739F0298564
:102060003A852130310509F480C0FAC08A81282FD1
:1020700030E038872F838F8198858130910569F111
:102080002F813885223031052CF48F819885009777
:1020900069F068C02F81388522303105A9F18F8120
:1020A00098858330910509F446C05CC0A9E3B0E08F
:1020B000E9E3F0E08181482F8B81282F30E081E037
:1020C00090E0022E02C0880F991F0A94E2F78095D3
:1020D000842311968C931197C8C0A6E3B0E0E6E381
:1020E000F0E08181482F8B81282F30E081E090E063
:1020F000022E02C0880F991F0A94E2F7809584236C
:1021000011968C931197B1C0A3E3B0E0E3E3F0E044
:102110008181482F8B81282F30E081E090E0022ED2
:1021200002C0880F991F0A94E2F7809584231196C4
:102130008C9311979AC0A0E3B0E0E0E3F0E08181D6
:10214000482F8B81282F30E081E090E0022E02C0E2
:10215000880F991F0A94E2F78095842311968C9337
:10216000119783C081E0898380C08A81282F30E065
:102170003E832D838D819E818130910561F12D817A
:102180003E81223031052CF48D819E81009769F0CB
:1021900064C02D813E812230310599F18D819E816F
:1021A0008330910509F443C058C0A9E3B0E0E9E3E6
:1021B000F0E08181482F8B81282F30E081E090E092
:1021C000022E02C0880F991F0A94E2F7842B119601
:1021D0008C9311974AC0A6E3B0E0E6E3F0E081817A
:1021E000482F8B81282F30E081E090E0022E02C042
:1021F000880F991F0A94E2F7842B11968C931197FC
:1022000034C0A3E3B0E0E3E3F0E08181482F8B81A9
:10221000282F30E081E090E0022E02C0880F991F45
:102220000A94E2F7842B11968C9311971EC0A0E3B9
:10223000B0E0E0E3F0E08181482F8B81282F30E08F
:1022400081E090E0022E02C0880F991F0A94E2F705
:10225000842B11968C93119708C081E0898305C067
:1022600081E0898302C081E0898389812A960FB643
:10227000F894DEBF0FBECDBFCF91DF910895DF93FD
:10228000CF93CDB7DEB72A970FB6F894DEBF0FBE57
:10229000CDBF8A836B834C8319828B81883008F091
:1022A0000DC18C81282F30E03A87298789859A854E
:1022B000009739F029853A852130310509F480C02D
:1022C000FAC08A81282F30E038872F838F81988544
:1022D0008130910569F12F813885223031052CF448
:1022E0008F819885009769F068C02F8138852230EA
:1022F0003105A9F18F8198858330910509F446C095
:102300005CC0A9E3B0E0E9E3F0E08281482F8B8173
:10231000282F30E081E090E0022E02C0880F991F44
:102320000A94E2F78095842312968C931297C8C082
:10233000A6E3B0E0E6E3F0E08281482F8B81282F0E
:1023400030E081E090E0022E02C0880F991F0A94CD
:10235000E2F78095842312968C931297B1C0A3E381
:10236000B0E0E3E3F0E08281482F8B81282F30E05A
:1023700081E090E0022E02C0880F991F0A94E2F7D4
:102380008095842312968C9312979AC0A0E3B0E0B4
:10239000E0E3F0E08281482F8B81282F30E081E05C
:1023A00090E0022E02C0880F991F0A94E2F78095F0
:1023B000842312968C93129783C081E0898380C016
:1023C0008A81282F30E03E832D838D819E8181304C
:1023D000910561F12D813E81223031052CF48D81F2
:1023E0009E81009769F064C02D813E8122303105C5
:1023F00099F18D819E818330910509F443C058C0C5
:10240000A9E3B0E0E9E3F0E08281482F8B81282F37
:1024100030E081E090E0022E02C0880F991F0A94FC
:10242000E2F7842B12968C9312974AC0A6E3B0E091
:10243000E6E3F0E08281482F8B81282F30E081E0B5
:1024400090E0022E02C0880F991F0A94E2F7842BB5
:1024500012968C93129734C0A3E3B0E0E3E3F0E06C
:102460008281482F8B81282F30E081E090E0022E7E
:1024700002C0880F991F0A94E2F7842B12968C935E
:1024800012971EC0A0E3B0E0E0E3F0E08281482FA5
:102490008B81282F30E081E090E0022E02C0880F6F
:1024A000991F0A94E2F7842B12968C93129708C016
:1024B00081E0898305C081E0898302C081E089834E
:1024C00089812A960FB6F894DEBF0FBECDBFCF919B
:1024D000DF910895DF93CF9300D000D00F92CDB756
:1024E000DEB78A836B8319828B81883008F07BC0CA
:1024F0008A81282F30E03D832C838C819D8181301F
:10250000910561F12C813D81223031052CF48C81C3
:102510009D81009769F064C02C813D812230310596
:1025200099F18C819D818330910509F443C058C095
:10253000A9E3B0E0E9E3F0E08281482F8B81282F06
:1025400030E081E090E0022E02C0880F991F0A94CB
:10255000E2F7842712968C93129747C0A6E3B0E067
:10256000E6E3F0E08281482F8B81282F30E081E084
:1025700090E0022E02C0880F991F0A94E2F7842788
:1025800012968C93129731C0A3E3B0E0E3E3F0E03E
:102590008281482F8B81282F30E081E090E0022E4D
:1025A00002C0880F991F0A94E2F7842712968C9331
:1025B00012971BC0A0E3B0E0E0E3F0E08281482F77
:1025C0008B81282F30E081E090E0022E02C0880F3E
:1025D000991F0A94E2F7842712968C93129705C0EC
:1025E00081E0898302C081E0898389810F900F9007
:1025F0000F900F900F90CF91DF910895DF93CF93BD
:10260000CDB7DEB727970FB6F894DEBF0FBECDBFAC
:102610008A836B835D834C8319828C819D810097B3
:1026200009F47BC08B81883008F074C08A81282F20
:1026300030E03F832E834E815F814130510559F157
:102640008E819F818230910534F42E813F81211546
:10265000310569F05CC04E815F814230510579F1EE
:102660008E819F818330910509F43DC050C0E9E31C
:10267000F0E08081282F30E08B81882F90E0A90145
:1026800002C0559547958A95E2F7CA018170EC81A1
:10269000FD81808344C0E6E3F0E08081282F30E0B4
:1026A0008B81882F90E0A90102C0559547958A95A6
:1026B000E2F7CA018170EC81FD81808330C0E3E3E1
:1026C000F0E08081282F30E08B81882F90E0A901F5
:1026D00002C0559547958A95E2F7CA018170EC8151
:1026E000FD8180831CC0E0E3F0E08081282F30E092
:1026F0008B81882F90E0A90102C0559547958A9556
:10270000E2F7CA018170EC81FD81808308C081E01D
:10271000898305C081E0898302C081E08983898142
:1027200027960FB6F894DEBF0FBECDBFCF91DF91D5
:102730000895DF93CF93CDB7DEB7E8970FB6F8943F
:10274000DEBF0FBECDBF82E060EF0E942A0F83E0A4
:1027500062E041E00E94141083E061E041E00E94E9
:10276000141083E060E041E00E94141080E090E0EB
:10277000A0E2B2E48DAB9EABAFABB8AF6DA97EA9C2
:102780008FA998AD20E030E04AEF54E40E941F0288
:10279000DC01CB0189AB9AABABABBCAB69A97AA925
:1027A0008BA99CA920E030E040E85FE30E94790318
:1027B00088232CF481E090E098AB8FA73FC069A9F3
:1027C0007AA98BA99CA920E03FEF4FE757E40E942C
:1027D000190318164CF56DA97EA98FA998AD20E0B4
:1027E00030E040E251E40E941F02DC01CB01BC0159
:1027F000CD010E944900DC01CB0198AB8FA70FC02F
:1028000088EC90E09EA78DA78DA59EA50197F1F776
:102810009EA78DA78FA598A9019798AB8FA78FA585
:1028200098A9009769F714C069A97AA98BA99CA9EE
:102830000E944900DC01CB0198AB8FA78FA598A916
:102840009CA78BA78BA59CA50197F1F79CA78BA7AD
:1028500080E20E94A21580E20E94A21580EC0E94F4
:10286000A21580E090E0A0E8BFE38FA398A7A9A7F6
:10287000BAA76FA178A589A59AA520E030E04AEF14
:1028800054E40E941F02DC01CB018BA39CA3ADA3E7
:10289000BEA36BA17CA18DA19EA120E030E040E809
:1028A0005FE30E94790388232CF481E090E09AA3EF
:1028B00089A33FC06BA17CA18DA19EA120E03FEF29
:1028C0004FE757E40E94190318164CF56FA178A53D
:1028D00089A59AA520E030E040E251E40E941F0261
:1028E000DC01CB01BC01CD010E944900DC01CB0120
:1028F0009AA389A30FC088EC90E098A38F8F8F8D47
:1029000098A10197F1F798A38F8F89A19AA10197B8
:102910009AA389A389A19AA1009769F714C06BA112
:102920007CA18DA19EA10E944900DC01CB019AA34C
:1029300089A389A19AA19E8F8D8F8D8D9E8D0197E0
:10294000F1F79E8F8D8F80E00E94A21580EC0E948F
:10295000A21580E090E0A0E8BFE3898F9A8FAB8F4B
:10296000BC8F698D7A8D8B8D9C8D20E030E04AEF95
:1029700054E40E941F02DC01CB018D8B9E8BAF8B38
:10298000B88F6D897E898F89988D20E030E040E88E
:102990005FE30E94790388232CF481E090E09C8B14
:1029A0008B8B3FC06D897E898F89988D20E03FEFAA
:1029B0004FE757E40E94190318164CF5698D7A8D7C
:1029C0008B8D9C8D20E030E040E251E40E941F029C
:1029D000DC01CB01BC01CD010E944900DC01CB012F
:1029E0009C8B8B8B0FC088EC90E09A8B898B8989AC
:1029F0009A890197F1F79A8B898B8B899C8901972A
:102A00009C8B8B8B8B899C89009769F714C06D898F
:102A10007E898F89988D0E944900DC01CB019C8BB7
:102A20008B8B8B899C89988B8F878F859889019751
:102A3000F1F7988B8F8780E00E94A21580E10E94B9
:102A4000A21580E090E0A0E0B0E48B879C87AD8782
:102A5000BE876B857C858D859E8520E030E04AEFC2
:102A600054E40E941F02DC01CB018F839887A98761
:102A7000BA876F81788589859A8520E030E040E8C3
:102A80005FE30E94790388232CF481E090E09E8329
:102A90008D833FC06F81788589859A8520E03FEFDF
:102AA0004FE757E40E94190318164CF56B857C8597
:102AB0008D859E8520E030E040E251E40E941F02B7
:102AC000DC01CB01BC01CD010E944900DC01CB013E
:102AD0009E838D830FC088EC90E09C838B838B81D9
:102AE0009C810197F1F79C838B838D819E81019757
:102AF0009E838D838D819E81009769F714C06F81BD
:102B0000788589859A850E944900DC01CB019E83E6
:102B10008D838D819E819A83898389819A81019792
:102B2000F1F79A83898380E00E94A21580E60E94D3
:102B3000A215E8960FB6F894DEBF0FBECDBFCF91B9
:102B4000DF910895DF93CF93CDB7DEB7E9970FB646
:102B5000F894DEBF0FBECDBF89AF83E062E040E0F6
:102B60000E943F1183E061E040E00E943F1189AD87
:102B7000982F907F82E0692F0E94720F83E060E0BF
:102B800041E00E943F1180E090E0A0E0B0E48DAB16
:102B90009EABAFABB8AF6DA97EA98FA998AD20E071
:102BA00030E04AEF54E40E941F02DC01CB0189AB04
:102BB0009AABABABBCAB69A97AA98BA99CA920E065
:102BC00030E040E85FE30E94790388232CF481E041
:102BD00090E098AB8FA73FC069A97AA98BA99CA95F
:102BE00020E03FEF4FE757E40E94190318164CF519
:102BF0006DA97EA98FA998AD20E030E040E251E4B4
:102C00000E941F02DC01CB01BC01CD010E944900E2
:102C1000DC01CB0198AB8FA70FC088EC90E09EA79A
:102C20008DA78DA59EA50197F1F79EA78DA78FA5CE
:102C300098A9019798AB8FA78FA598A9009769F7D6
:102C400014C069A97AA98BA99CA90E944900DC013A
:102C5000CB0198AB8FA78FA598A99CA78BA78BA515
:102C60009CA50197F1F79CA78BA783E060E040E06B
:102C70000E943F1180E090E0A0E0B0E48FA398A70D
:102C8000A9A7BAA76FA178A589A59AA520E030E0E9
:102C90004AEF54E40E941F02DC01CB018BA39CA3EA
:102CA000ADA3BEA36BA17CA18DA19EA120E030E0CD
:102CB00040E85FE30E94790388232CF481E090E0F0
:102CC0009AA389A33FC06BA17CA18DA19EA120E006
:102CD0003FEF4FE757E40E94190318164CF56FA118
:102CE00078A589A59AA520E030E040E251E40E9451
:102CF0001F02DC01CB01BC01CD010E944900DC01B7
:102D0000CB019AA389A30FC088EC90E098A38F8F82
:102D10008F8D98A10197F1F798A38F8F89A19AA120
:102D200001979AA389A389A19AA1009769F714C072
:102D30006BA17CA18DA19EA10E944900DC01CB0169
:102D40009AA389A389A19AA19E8F8D8F8D8D9E8D27
:102D50000197F1F79E8F8D8F83E062E040E00E9443
:102D60003F1183E061E040E00E943F1189AD882F70
:102D700090E082959295907F9827807F9827982F52
:102D800082E0692F0E94720F83E060E041E00E94C0
:102D90003F1180E090E0A0E0B0E4898F9A8FAB8F84
:102DA000BC8F698D7A8D8B8D9C8D20E030E04AEF51
:102DB00054E40E941F02DC01CB018D8B9E8BAF8BF4
:102DC000B88F6D897E898F89988D20E030E040E84A
:102DD0005FE30E94790388232CF481E090E09C8BD0
:102DE0008B8B3FC06D897E898F89988D20E03FEF66
:102DF0004FE757E40E94190318164CF5698D7A8D38
:102E00008B8D9C8D20E030E040E251E40E941F0257
:102E1000DC01CB01BC01CD010E944900DC01CB01EA
:102E20009C8B8B8B0FC088EC90E09A8B898B898967
:102E30009A890197F1F79A8B898B8B899C890197E5
:102E40009C8B8B8B8B899C89009769F714C06D894B
:102E50007E898F89988D0E944900DC01CB019C8B73
:102E60008B8B8B899C89988B8F878F85988901970D
:102E7000F1F7988B8F8783E060E040E00E943F117C
:102E800080E090E0A0E0B0E48B879C87AD87BE87B0
:102E90006B857C858D859E8520E030E04AEF54E48B
:102EA0000E941F02DC01CB018F839887A987BA8714
:102EB0006F81788589859A8520E030E040E85FE37E
:102EC0000E94790388232CF481E090E09E838D8317
:102ED0003FC06F81788589859A8520E03FEF4FE775
:102EE00057E40E94190318164CF56B857C858D8577
:102EF0009E8520E030E040E251E40E941F02DC01A8
:102F0000CB01BC01CD010E944900DC01CB019E83B5
:102F10008D830FC088EC90E09C838B838B819C8198
:102F20000197F1F79C838B838D819E8101979E830E
:102F30008D838D819E81009769F714C06F8178859C
:102F400089859A850E944900DC01CB019E838D838F
:102F50008D819E819A83898389819A810197F1F776
:102F60009A838983E9960FB6F894DEBF0FBECDBF72
:102F7000CF91DF910895DF93CF93CDB7DEB7E99777
:102F80000FB6F894DEBF0FBECDBF89AF83E062E01D
:102F900041E00E943F1183E061E040E00E943F1168
:102FA00089AD982F907F82E0692F0E94720F83E095
:102FB00060E041E00E943F1180E090E0A0E0B0E4DA
:102FC0008DAB9EABAFABB8AF6DA97EA98FA998AD05
:102FD00020E030E04AEF54E40E941F02DC01CB0104
:102FE00089AB9AABABABBCAB69A97AA98BA99CA9FD
:102FF00020E030E040E85FE30E94790388232CF46E
:1030000081E090E098AB8FA73FC069A97AA98BA90E
:103010009CA920E03FEF4FE757E40E9419031816E0
:103020004CF56DA97EA98FA998AD20E030E040E273
:1030300051E40E941F02DC01CB01BC01CD010E94C2
:103040004900DC01CB0198AB8FA70FC088EC90E062
:103050009EA78DA78DA59EA50197F1F79EA78DA789
:103060008FA598A9019798AB8FA78FA598A90097CE
:1030700069F714C069A97AA98BA99CA90E94490083
:10308000DC01CB0198AB8FA78FA598A99CA78BA734
:103090008BA59CA50197F1F79CA78BA783E060E027
:1030A00040E00E943F1180E090E0A0E0B0E48FA3F8
:1030B00098A7A9A7BAA76FA178A589A59AA520E086
:1030C00030E04AEF54E40E941F02DC01CB018BA3E5
:1030D0009CA3ADA3BEA36BA17CA18DA19EA120E06A
:1030E00030E040E85FE30E94790388232CF481E01C
:1030F00090E09AA389A33FC06BA17CA18DA19EA162
:1031000020E03FEF4FE757E40E94190318164CF5F3
:103110006FA178A589A59AA520E030E040E251E4AE
:103120000E941F02DC01CB01BC01CD010E944900BD
:10313000DC01CB019AA389A30FC088EC90E098A38F
:103140008F8F8F8D98A10197F1F798A38F8F89A109
:103150009AA101979AA389A389A19AA1009769F7D7
:1031600014C06BA17CA18DA19EA10E944900DC012D
:10317000CB019AA389A389A19AA19E8F8D8F8D8D52
:103180009E8D0197F1F79E8F8D8F83E062E041E085
:103190000E943F1183E061E040E00E943F1189AD51
:1031A000882F90E082959295907F9827807F98272E
:1031B000982F82E0692F0E94720F83E060E041E067
:1031C0000E943F1180E090E0A0E0B0E4898F9A8FE8
:1031D000AB8FBC8F698D7A8D8B8D9C8D20E030E01C
:1031E0004AEF54E40E941F02DC01CB018D8B9E8BC1
:1031F000AF8BB88F6D897E898F89988D20E030E004
:1032000040E85FE30E94790388232CF481E090E09A
:103210009C8B8B8B3FC06D897E898F89988D20E038
:103220003FEF4FE757E40E94190318164CF5698DDC
:103230007A8D8B8D9C8D20E030E040E251E40E943D
:103240001F02DC01CB01BC01CD010E944900DC0161
:10325000CB019C8B8B8B0FC088EC90E09A8B898B79
:1032600089899A890197F1F79A8B898B8B899C8937
:1032700001979C8B8B8B8B899C89009769F714C075
:103280006D897E898F89988D0E944900DC01CB0170
:103290009C8B8B8B8B899C89988B8F878F8598894A
:1032A0000197F1F7988B8F8783E060E040E00E9400
:1032B0003F1180E090E0A0E0B0E48B879C87AD8771
:1032C000BE876B857C858D859E8520E030E04AEF4A
:1032D00054E40E941F02DC01CB018F839887A987E9
:1032E000BA876F81788589859A8520E030E040E84B
:1032F0005FE30E94790388232CF481E090E09E83B1
:103300008D833FC06F81788589859A8520E03FEF66
:103310004FE757E40E94190318164CF56B857C851E
:103320008D859E8520E030E040E251E40E941F023E
:10333000DC01CB01BC01CD010E944900DC01CB01C5
:103340009E838D830FC088EC90E09C838B838B8160
:103350009C810197F1F79C838B838D819E810197DE
:103360009E838D838D819E81009769F714C06F8144
:10337000788589859A850E944900DC01CB019E836E
:103380008D838D819E819A83898389819A8101971A
:10339000F1F79A838983E9960FB6F894DEBF0FBEE2
:1033A000CDBFCF91DF910895DF93CF93CDB7DEB737
:1033B000E8970FB6F894DEBF0FBECDBF82E06FEF87
:1033C0000E942A0F83E062E041E00E94141083E033
:1033D00061E041E00E94141083E060E041E00E945F
:1033E000141080E090E0A0E2B2E48DAB9EABAFABF6
:1033F000B8AF6DA97EA98FA998AD20E030E04AEF63
:1034000054E40E941F02DC01CB0189AB9AABABAB49
:10341000BCAB69A97AA98BA99CA920E030E040E85F
:103420005FE30E94790388232CF481E090E098AB5D
:103430008FA73FC069A97AA98BA99CA920E03FEF7B
:103440004FE757E40E94190318164CF56DA97EA9A1
:103450008FA998AD20E030E040E251E40E941F02C5
:10346000DC01CB01BC01CD010E944900DC01CB0194
:1034700098AB8FA70FC088EC90E09EA78DA78DA575
:103480009EA50197F1F79EA78DA78FA598A90197F3
:1034900098AB8FA78FA598A9009769F714C069A961
:1034A0007AA98BA99CA90E944900DC01CB0198ABA9
:1034B0008FA78FA598A99CA78BA78BA59CA50197E3
:1034C000F1F79CA78BA788E30E94CE1B80E090E0D9
:1034D000A0E8BFE38FA398A7A9A7BAA76FA178A573
:1034E00089A59AA520E030E04AEF54E40E941F022B
:1034F000DC01CB018BA39CA3ADA3BEA36BA17CA1DC
:103500008DA19EA120E030E040E85FE30E947903B6
:1035100088232CF481E090E09AA389A33FC06BA19B
:103520007CA18DA19EA120E03FEF4FE757E40E94D0
:10353000190318164CF56FA178A589A59AA520E066
:1035400030E040E251E40E941F02DC01CB01BC01EB
:10355000CD010E944900DC01CB019AA389A30FC0D1
:1035600088EC90E098A38F8F8F8D98A10197F1F749
:1035700098A38F8F89A19AA101979AA389A389A162
:103580009AA1009769F714C06BA17CA18DA19EA19F
:103590000E944900DC01CB019AA389A389A19AA1C9
:1035A0009E8F8D8F8D8D9E8D0197F1F79E8F8D8FC4
:1035B0008CE00E94CE1B80E090E0A0E8BFE3898F02
:1035C0009A8FAB8FBC8F698D7A8D8B8D9C8D20E00F
:1035D00030E04AEF54E40E941F02DC01CB018D8BE6
:1035E0009E8BAF8BB88F6D897E898F89988D20E0F7
:1035F00030E040E85FE30E94790388232CF481E007
:1036000090E09C8B8B8B3FC06D897E898F89988DD4
:1036100020E03FEF4FE757E40E94190318164CF5DE
:10362000698D7A8D8B8D9C8D20E030E040E251E4F5
:103630000E941F02DC01CB01BC01CD010E944900A8
:10364000DC01CB019C8B8B8B0FC088EC90E09A8BBC
:10365000898B89899A890197F1F79A8B898B8B8954
:103660009C8901979C8B8B8B8B899C89009769F730
:1036700014C06D897E898F89988D0E944900DC0174
:10368000CB019C8B8B8B8B899C89988B8F878F85AB
:1036900098890197F1F7988B8F8781E00E94CE1B64
:1036A00080E090E0A0E0B0E48B879C87AD87BE8788
:1036B0006B857C858D859E8520E030E04AEF54E463
:1036C0000E941F02DC01CB018F839887A987BA87EC
:1036D0006F81788589859A8520E030E040E85FE356
:1036E0000E94790388232CF481E090E09E838D83EF
:1036F0003FC06F81788589859A8520E03FEF4FE74D
:1037000057E40E94190318164CF56B857C858D854E
:103710009E8520E030E040E251E40E941F02DC017F
:10372000CB01BC01CD010E944900DC01CB019E838D
:103730008D830FC088EC90E09C838B838B819C8170
:103740000197F1F79C838B838D819E8101979E83E6
:103750008D838D819E81009769F714C06F81788574
:1037600089859A850E944900DC01CB019E838D8367
:103770008D819E819A83898389819A810197F1F74E
:103780009A83898386E00E94CE1BE8960FB6F89450
:10379000DEBF0FBECDBFCF91DF910895DF93CF93F2
:1037A000CDB7DEB76D970FB6F894DEBF0FBECDBFB5
:1037B0008D8F83E062E040E00E943F1183E061E092
:1037C00040E00E943F1182E06D8D0E94720F83E005
:1037D00060E041E00E943F1180E090E0A0E0B0E4B2
:1037E000898F9A8FAB8FBC8F698D7A8D8B8D9C8DD5
:1037F00020E030E04AEF54E40E941F02DC01CB01DC
:103800008D8B9E8BAF8BB88F6D897E898F89988DBC
:1038100020E030E040E85FE30E94790388232CF445
:1038200081E090E09C8B8B8B3FC06D897E898F8976
:10383000988D20E03FEF4FE757E40E9419031816D8
:103840004CF5698D7A8D8B8D9C8D20E030E040E2C7
:1038500051E40E941F02DC01CB01BC01CD010E949A
:103860004900DC01CB019C8B8B8B0FC088EC90E076
:103870009A8B898B89899A890197F1F79A8B898B21
:103880008B899C8901979C8B8B8B8B899C8900975A
:1038900069F714C06D897E898F89988D0E944900CF
:1038A000DC01CB019C8B8B8B8B899C89988B8F87C0
:1038B0008F8598890197F1F7988B8F8783E060E077
:1038C00040E00E943F1180E090E0A0E0B0E48B87F0
:1038D0009C87AD87BE876B857C858D859E8520E026
:1038E00030E04AEF54E40E941F02DC01CB018F83D9
:1038F0009887A987BA876F81788589859A8520E01E
:1039000030E040E85FE30E94790388232CF481E0F3
:1039100090E09E838D833FC06F81788589859A85ED
:1039200020E03FEF4FE757E40E94190318164CF5CB
:103930006B857C858D859E8520E030E040E251E4FA
:103940000E941F02DC01CB01BC01CD010E94490095
:10395000DC01CB019E838D830FC088EC90E09C83BB
:103960008B838B819C810197F1F79C838B838D8165
:103970009E8101979E838D838D819E81009769F73B
:1039800014C06F81788589859A850E944900DC0181
:10399000CB019E838D838D819E819A8389838981CA
:1039A0009A810197F1F79A8389836D960FB6F894FF
:1039B000DEBF0FBECDBFCF91DF910895DF93CF93D0
:1039C000CDB7DEB76D970FB6F894DEBF0FBECDBF93
:1039D0008D8F83E062E041E00E943F1183E061E06F
:1039E00040E00E943F1182E06D8D0E94720F83E0E3
:1039F00060E041E00E943F1180E090E0A0E0B0E490
:103A0000898F9A8FAB8FBC8F698D7A8D8B8D9C8DB2
:103A100020E030E04AEF54E40E941F02DC01CB01B9
:103A20008D8B9E8BAF8BB88F6D897E898F89988D9A
:103A300020E030E040E85FE30E94790388232CF423
:103A400081E090E09C8B8B8B3FC06D897E898F8954
:103A5000988D20E03FEF4FE757E40E9419031816B6
:103A60004CF5698D7A8D8B8D9C8D20E030E040E2A5
:103A700051E40E941F02DC01CB01BC01CD010E9478
:103A80004900DC01CB019C8B8B8B0FC088EC90E054
:103A90009A8B898B89899A890197F1F79A8B898BFF
:103AA0008B899C8901979C8B8B8B8B899C89009738
:103AB00069F714C06D897E898F89988D0E944900AD
:103AC000DC01CB019C8B8B8B8B899C89988B8F879E
:103AD0008F8598890197F1F7988B8F8783E060E055
:103AE00040E00E943F1180E090E0A0E0B0E48B87CE
:103AF0009C87AD87BE876B857C858D859E8520E004
:103B000030E04AEF54E40E941F02DC01CB018F83B6
:103B10009887A987BA876F81788589859A8520E0FB
:103B200030E040E85FE30E94790388232CF481E0D1
:103B300090E09E838D833FC06F81788589859A85CB
:103B400020E03FEF4FE757E40E94190318164CF5A9
:103B50006B857C858D859E8520E030E040E251E4D8
:103B60000E941F02DC01CB01BC01CD010E94490073
:103B7000DC01CB019E838D830FC088EC90E09C8399
:103B80008B838B819C810197F1F79C838B838D8143
:103B90009E8101979E838D838D819E81009769F719
:103BA00014C06F81788589859A850E944900DC015F
:103BB000CB019E838D838D819E819A8389838981A8
:103BC0009A810197F1F79A8389836D960FB6F894DD
:103BD000DEBF0FBECDBFCF91DF910895DF93CF93AE
:103BE000CDB7DEB76D970FB6F894DEBF0FBECDBF71
:103BF0008D8F83E062E041E00E943F1183E061E04D
:103C000041E00E943F1182E06D8D0E94720F83E0BF
:103C100060E041E00E943F1180E090E0A0E0B0E46D
:103C2000898F9A8FAB8FBC8F698D7A8D8B8D9C8D90
:103C300020E030E04AEF54E40E941F02DC01CB0197
:103C40008D8B9E8BAF8BB88F6D897E898F89988D78
:103C500020E030E040E85FE30E94790388232CF401
:103C600081E090E09C8B8B8B3FC06D897E898F8932
:103C7000988D20E03FEF4FE757E40E941903181694
:103C80004CF5698D7A8D8B8D9C8D20E030E040E283
:103C900051E40E941F02DC01CB01BC01CD010E9456
:103CA0004900DC01CB019C8B8B8B0FC088EC90E032
:103CB0009A8B898B89899A890197F1F79A8B898BDD
:103CC0008B899C8901979C8B8B8B8B899C89009716
:103CD00069F714C06D897E898F89988D0E9449008B
:103CE000DC01CB019C8B8B8B8B899C89988B8F877C
:103CF0008F8598890197F1F7988B8F8783E060E033
:103D000040E00E943F1180E090E0A0E0B0E48B87AB
:103D10009C87AD87BE876B857C858D859E8520E0E1
:103D200030E04AEF54E40E941F02DC01CB018F8394
:103D30009887A987BA876F81788589859A8520E0D9
:103D400030E040E85FE30E94790388232CF481E0AF
:103D500090E09E838D833FC06F81788589859A85A9
:103D600020E03FEF4FE757E40E94190318164CF587
:103D70006B857C858D859E8520E030E040E251E4B6
:103D80000E941F02DC01CB01BC01CD010E94490051
:103D9000DC01CB019E838D830FC088EC90E09C8377
:103DA0008B838B819C810197F1F79C838B838D8121
:103DB0009E8101979E838D838D819E81009769F7F7
:103DC00014C06F81788589859A850E944900DC013D
:103DD000CB019E838D838D819E819A838983898186
:103DE0009A810197F1F79A8389836D960FB6F894BB
:103DF000DEBF0FBECDBFCF91DF910895DF93CF938C
:103E000000D00F92CDB7DEB79B838A838A819B81D6
:103E10000097D9F019820EC08981282F30E08A815D
:103E20009B81FC01E20FF31F80810E94DE1C8981CF
:103E30008F5F89838981282F30E08A819B81FC01F3
:103E4000E20FF31F8081882339F70F900F900F90B6
:103E5000CF91DF910895DF93CF9300D00F92CDB72C
:103E6000DEB78A836B838A81882319F48B818983E7
:103E700006C08A81813019F48B81805C89838981B5
:103E800080580E94CE1B0F900F900F90CF91DF9122
:103E90000895DF93CF93CDB7DEB727970FB6F89489
:103EA000DEBF0FBECDBF9C838B836D834E832F837C
:103EB0001A828D81882F90E0880F991F880F991F93
:103EC000880F991F8A838A81805C0E94CE1B198289
:103ED0000EC08981282F30E08B819C81FC01E20F8C
:103EE000F31F80810E94DE1C89818F5F8983898115
:103EF000883078F38E816F810E942B1F8D810E9404
:103F0000DE1C27960FB6F894DEBF0FBECDBFCF9153
:103F1000DF9108950F931F93DF93CF93CDB7DEB753
:103F200061970FB6F894DEBF0FBECDBF6E877F8757
:103F3000888B998B8E859F85A889B9898B839C8373
:103F4000AD83BE831A828B819C81AD81BE81009737
:103F5000A105B10589F580E30E94DE1C4DC08A8170
:103F6000082F10E08B819C81AD81BE812AE030E07A
:103F700040E050E0BC01CD010E94F822DC01CB0101
:103F8000282FCE010796FC01E00FF11F20838B81C3
:103F90009C81AD81BE812AE030E040E050E0BC0170
:103FA000CD010E94F822DA01C9018B839C83AD8385
:103FB000BE838A818F5F8A838B819C81AD81BE8124
:103FC0000097A105B10559F68A818150898311C0F6
:103FD0008981282F332727FD3095CE010796FC01D4
:103FE000E20FF31F8081805D0E94DE1C8981815079
:103FF00089838981882364F761960FB6F894DEBFC0
:104000000FBECDBFCF91DF911F910F910895DF9328
:10401000CF9300D0CDB7DEB79A838983E981FA8147
:104020008FEF84830F900F90CF91DF910895DF93EE
:10403000CF9300D0CDB7DEB79A83898380E00F900D
:104040000F90CF91DF910895DF93CF9300D00F921F
:10405000CDB7DEB79A838983E981FA8184811B8297
:10406000833011F481E08B838B810F900F900F9040
:10407000CF91DF910895DF93CF9300D000D0CDB7DB
:10408000DEB79A8389836B8389819A810E94242079
:10409000882341F080919D0080939C0080919C003A
:1040A0008C831AC0E981FA8184818F5FE981FA816A
:1040B0008483E981FA818481282F30E089819A8183
:1040C000FC01E20FF31F8B81808389819A81FC01BF
:1040D000E20FF31F80818C838C810F900F900F90E3
:1040E0000F90CF91DF910895DF93CF9300D00F927F
:1040F000CDB7DEB79A83898389819A810E94172080
:10410000882341F080919D0080939C0080919C00C9
:104110008B8311C0E981FA814481242F30E08981A9
:104120009A81FC01E20FF31F80818B83842F8150E1
:10413000E981FA8184838B810F900F900F90CF914A
:10414000DF910895DF93CF93CDB7DEB7E0970FB639
:10415000F894DEBF0FBECDBF82E08C831B8284E665
:1041600090E09E838D8318861F8289EA91E29A836C
:104170008983CE0101960E94C90581E08C8781E088
:104180008B8784E690E09E878D87188A1F8687E854
:1041900092E29A878987CE0109960E94C9051C8AF6
:1041A0001B8A88EC90E09E8B8D8B188E1F8A88E985
:1041B00091E29A8B898BCE0141960E94C90583E0DA
:1041C0008C8F81E08B8F84EF91E09E8F8D8F8CE2BE
:1041D00091E098A38F8F8DE791E29A8F898FCE011E
:1041E00049960E94C90584E08CA381E08BA384EFEB
:1041F00091E09EA38DA384E690E098A78FA385E528
:1042000091E29AA389A3CE0181960E94C90585E017
:104210008CA781E08BA784EF91E09EA78DA788EC07
:1042200090E098AB8FA789E691E29AA789A7CE0183
:1042300089960E94C905E0960FB6F894DEBF0FBEBE
:10424000CDBFCF91DF910895DF93CF93CDB7DEB788
:1042500080E060E040E00E94141080E061E040E017
:104260000E94141080E062E040E00E94141080E0A0
:1042700063E041E00E94141080E064E041E00E94AD
:10428000141080E060E041E00E943F1180E061E0B6
:1042900041E00E943F1180E062E041E00E943F1156
:1042A0000E94A2200E94A305FFCFDF93CF93CDB73A
:1042B000DEB79091A10081E089278093A1009091C1
:1042C000A10080E064E0492F0E943F11CF91DF916F
:1042D0000895DF93CF93CDB7DEB79091A20081E030
:1042E00089278093A2009091A20080E063E0492F8B
:1042F0000E943F11CF91DF910895DF93CF93CDB707
:10430000DEB79091A30081E089278093A30090916C
:10431000A30080E063E0492F0E943F119091A30029
:1043200080E064E0492F0E943F11CF91DF91089512
:10433000DF93CF93CDB7DEB780E063E040E00E942B
:104340003F1180E064E040E00E943F11CF91DF9197
:104350000895DF93CF93CDB7DEB72B970FB6F894C0
:10436000DEBF0FBECDBFCE0101960E94072081E0C7
:104370000E943C0628E630E080E060E0A9010E944F
:10438000FE1229E630E080E061E0A9010E94FE1201
:104390002AE630E080E062E0A9010E94FE12CE0130
:1043A000019660E00E943B2080939C008091680011
:1043B0008823A1F580919E008F5F80939E0080915D
:1043C0009E00282F30E03B872A878A859B85813095
:1043D000910531F02A853B852230310561F01BC003
:1043E000CE01019661E00E943B2080939C0081E019
:1043F0000E94550613C080919C0080939D00CE01C1
:1044000001960E94742080939C0081E00E945506D2
:1044100010929E0003C081E00E943C0680916900DA
:104420008823A1F580919F008F5F80939F008091EA
:104430009F00282F30E0398728878885998581302B
:10444000910531F0288539852230310561F01BC096
:10445000CE01019662E00E943B2080939C0081E0A7
:104460000E94550613C080919C0080939D00CE0150
:1044700001960E94742080939C0081E00E94550662
:1044800010929F0003C081E00E943C0680916A0068
:104490008823A1F58091A0008F5F8093A000809178
:1044A000A000282F30E03F832E838E819F818130B2
:1044B000910531F02E813F812230310561F01BC022
:1044C000CE01019663E00E943B2080939C0081E036
:1044D0000E94550613C080919C0080939D00CE01E0
:1044E00001960E94742080939C0081E00E945506F2
:1044F0001092A00003C081E00E943C062B960FB6EC
:10450000F894DEBF0FBECDBFCF91DF910895DF934A
:10451000CF9300D0CDB7DEB780919C00282F30E03C
:104520003A83298389819A818130910511F129810A
:104530003A81223031052CF489819A81009761F00B
:104540003EC029813A812230310501F189819A8169
:104550008330910541F133C080E00E94550684E02C
:104560000E943C0685E00E943C0683E00E943C06D7
:1045700026C080E00E943C0684E00E94550685E04B
:104580000E943C0683E00E943C0619C080E00E9425
:104590003C0684E00E943C0685E00E94550683E0CC
:1045A0000E943C060CC080E00E943C0684E00E9411
:1045B0003C0685E00E943C0683E00E9455060F9071
:1045C0000F90CF91DF910895AA1BBB1B51E107C04B
:1045D000AA1FBB1FA617B70710F0A61BB70B881F93
:1045E000991F5A95A9F780959095BC01CD01089522
:1045F000A1E21A2EAA1BBB1BFD010DC0AA1FBB1FE7
:10460000EE1FFF1FA217B307E407F50720F0A21B58
:10461000B30BE40BF50B661F771F881F991F1A94C5
:1046200069F760957095809590959B01AC01BD01EF
:10463000CF0108952F923F924F925F926F927F9297
:104640008F929F92AF92BF92CF92DF92EF92FF92A2
:104650000F931F93CF93DF93CDB7DEB7CA1BDB0B4E
:104660000FB6F894DEBF0FBECDBF09942A883988F3
:1046700048885F846E847D848C849B84AA84B984FA
:10468000C884DF80EE80FD800C811B81AA81B98106
:10469000CE0FD11D0FB6F894DEBF0FBECDBFED011A
:0646A0000895F894FFCF1D
:0C46A60000000000000000000101010005
:00000001FF
